:100000000C945E000C9486000C9486000C94860080
:100010000C9486000C9486000C9486000C94860048
:100020000C9486000C9486000C9486000C94860038
:100030000C9486000C9486000C9486000C94860028
:100040000C9493040C9486000C9403050C94DD042A
:100050000C9486000C9486000C9486000C94860008
:100060000C9486000C9486000000000024002700F9
:100070002A0000000008000201000003040700003D
:10008000000000000000010204081020408001026E
:1000900004081020010204081020000000002500C0
:1000A00028002B00040404040404040402020202D5
:1000B00002020303030303034905350511241FBE90
:1000C000CFEFD8E0DEBFCDBF22E0A2E4B1E001C0B7
:1000D0001D92A432B207E1F711E0A0E0B1E0E0E543
:1000E000F4E102C005900D92A234B107D9F710E0F7
:1000F000CDE5D0E004C02197FE010E941D08CC355B
:10010000D107C9F70E94A6060C941B0A0C940000A4
:1001100090E0FC01EE58FF4F2491FC01EA57FF4F9D
:100120003491FC01EC55FF4FE491EE23B9F1222309
:1001300039F1233091F038F42130A9F0223001F563
:1001400084B58F7D12C0273091F02830A1F0243083
:10015000B9F4809180008F7D03C0809180008F77FB
:10016000809380000DC084B58F7784BD09C08091D5
:10017000B0008F7703C08091B0008F7D8093B00076
:10018000F0E0EE0FFF1FE656FF4FA591B4918FB739
:10019000F894EC9130953E233C938FBF0895E09105
:1001A0000D02F0910E028E179F07F0F530911202AA
:1001B000332361F0639FB0011124672F439FA00197
:1001C0001124452F239F90011124232F30911802D1
:1001D00050911502E0911302F0911402351308C0FA
:1001E000DC01AA0FBB1F8A0F9B1F8E0F9F1F0AC027
:1001F000880F991F880F991F8E0F9F1FFC01E30F17
:10020000F11D108230911502FC01E30FF11D608396
:1002100030911602FC01E30FF11D4083309117026B
:10022000FC01E30FF11D20830895CF93DF9390E04D
:10023000FC01EA57FF4F2491FC01EC55FF4F8491DC
:10024000882361F190E0880F991FFC01E859FF4F66
:10025000C591D491FC01E656FF4FA591B49161116F
:1002600009C09FB7F8948881209582238883EC91F8
:100270002E230BC0623061F49FB7F8943881822F2F
:10028000809583238883EC912E2B2C939FBF06C0EF
:100290008FB7F894E8812E2B28838FBFDF91CF9101
:1002A00008953FB7F8948091470190914801A0913B
:1002B0004901B0914A0126B5A89B05C02F3F19F00E
:1002C0000196A11DB11D3FBFBA2FA92F982F8827D6
:1002D000820F911DA11DB11DBC01CD0142E0660F31
:1002E000771F881F991F4A95D1F708950F931F9381
:1002F000CF93DF93CDB7DEB729970FB6F894DEBF63
:100300000FBECDBF8091130290911402892B09F486
:10031000A1C00E9451010091190210911A0220916E
:100320001B0230911C02DC01CB01801B910BA20B44
:10033000B30BC297A105B10560F3F89480910F0249
:10034000909110029A838983E0911302F091140234
:10035000DF0111968081898790910B02E0911D0247
:10036000F0911E0280911F02992309F42EC0908102
:10037000982B98879081809589238F838F818C8398
:1003800088E08B8358856F8149853B812C818981E9
:100390009A81508347FD252F3A952083262F39F0E7
:1003A000441F00C000006083000000C0F2CF38E0AE
:1003B0004D9160830000019761F7F0931E02E09376
:1003C0001D0249873B832C8338C09081982B9887E6
:1003D0009081809589238F838F818E8388E08D83A0
:1003E00058856F8149853D812E8189819A8150830D
:1003F00047FD252F00C000C0208300C000C000C002
:1004000000C000C060830000262F3A9541F0441FD1
:10041000000000C000C000C000C000C0E8CF38E04D
:100420004D9100C0608300C0019709F7F0931E0250
:10043000E0931D0249873D832E839A8389837894B4
:100440000E9451016093190270931A0280931B025B
:1004500090931C0229960FB6F894DEBF0FBECDBF55
:10046000DF91CF911F910F9108958F929F92AF923C
:10047000BF92CF92DF92EF92FF926B017C010E94BC
:1004800051014B015C01C114D104E104F104F1F00C
:100490000E945101DC01CB0188199909AA09BB0905
:1004A000883E9340A105B10570F321E0C21AD1083E
:1004B000E108F10888EE880E83E0981EA11CB11CAB
:1004C000C114D104E104F10419F7DDCFFF90EF90DE
:1004D000DF90CF90BF90AF909F908F900895CF9274
:1004E000DF92EF92FF920F931F93CF93DF936C01F4
:1004F0007A018B01C0E0D0E0CE15DF0589F0D8018C
:100500006D918D01D601ED91FC910190F081E02D6E
:10051000C6010995892B11F47E0102C02196ECCF0A
:10052000C701DF91CF911F910F91FF90EF90DF9066
:10053000CF900895FC01918D828D981761F0828D86
:10054000DF01A80FB11D5D968C91928D9F5F9F7307
:10055000928F90E008958FEF9FEF0895FC01918DA9
:10056000828D981731F0828DE80FF11D858D90E016
:1005700008958FEF9FEF0895FC01918D228D892FB3
:1005800090E0805C9F4F821B91098F73992708959B
:100590008BE491E00E94BC0221E0892B09F420E069
:1005A000822F0895FC01848DDF01A80FB11DA35A8D
:1005B000BF4F2C91848D90E001968F739927848F83
:1005C000A689B7892C93A089B1898C9180648C937A
:1005D000938D848D981306C00288F389E02D808165
:1005E0008F7D80830895EF92FF920F931F93CF9397
:1005F000DF93EC0181E0888F9B8D8C8D981305C073
:10060000E889F989808185FD24C0F62E0B8D10E0E4
:100610000F5F1F4F0F731127E02E8C8DE8120CC057
:100620000FB607FCFACFE889F989808185FFF5CFFD
:10063000CE010E94D202F1CF8B8DFE01E80FF11D99
:10064000E35AFF4FF0820B8FEA89FB898081806239
:1006500007C0EE89FF896083E889F9898081806419
:10066000808381E090E0DF91CF911F910F91FF9007
:10067000EF900895CF93DF93EC01888D8823C9F024
:10068000EA89FB89808185FD05C0A889B9898C919B
:1006900086FD0FC00FB607FCF5CF808185FFF2CF36
:1006A000A889B9898C9185FFEDCFCE010E94D20235
:1006B000E7CFDF91CF91089580E090E0892B29F07A
:1006C0000E94C80281110C9400000895FC018681EB
:1006D0008823E9F042815381648175812FB7F894B2
:1006E0008091430190914401A0914501B091460150
:1006F0002FBF481B590B6A0B7B0B87819085A0E0AD
:10070000B0E0481759076A077B0708F41682089576
:10071000CF92DF92EF92FF920F931F93CF93DF93CD
:100720006C0181E0C816D10429F000E010E0CDE1B1
:10073000D0E004C00DE110E0C0E0D0E08FE0E82E92
:10074000F12C20E049E160E0C8010E94CF0020E0E8
:1007500040E069E1CE010E94CF0081E0C816D104DB
:1007600021F421960150110903C021970F5F1F4FFB
:100770000E94760164E670E080E090E00E9435021D
:1007800081E0E81AF108E9F640910F025091100259
:1007900060E070E080911302909114020E9455096C
:1007A000DF91CF911F910F91FF90EF90DF90CF904D
:1007B0000C947601EBE0F2E04481558160E070E05A
:1007C000808591850E94550920E049E160E080E044
:1007D00090E00E94CF0020E049E160E08DE190E0F0
:1007E0000E94CF0029E149E169E1809102029091E4
:1007F00003020E94CF000C947601009769F0FC017F
:1008000001900020E9F73197AF01481B590BBC015B
:100810008BE491E00C946F0280E090E008958F9259
:100820009F92AF92BF92CF92DF92EF92FF920F937F
:100830001F93CF93DF93CDB7DEB7A1970FB6F89490
:10084000DEBF0FBECDBF6C01990FEE08FF08F7FEAB
:1008500031C0E0914B01F0914C010190F081E02D0D
:100860006DE28BE491E009958C0122273327A901E1
:100870002C193D094E095F0919A2CE0181967C0110
:100880009AE0892E912CA12CB12CCA01B901A501A5
:1008900094010E94EA09605DF70162937F012115CE
:1008A00031054105510589F7CF010E94FD03080F6D
:1008B000191F1EC0A701960119A28E010F5D1F4FBF
:1008C0008AE0C82ED12CE12CF12CCA01B901A70174
:1008D00096010E94EA09605DF80162938F0121157B
:1008E00031054105510589F7CF010E94FD038C01B7
:1008F0008AE191E00E94FD03800F911FA1960FB63F
:10090000F894DEBF0FBECDBFDF91CF911F910F9145
:10091000FF90EF90DF90CF90BF90AF909F908F901F
:1009200008950E9450091F920F920FB60F92112442
:100930002F933F938F939F93AF93BF9380914301E6
:1009400090914401A0914501B0914601309142013E
:1009500023E0230F2D3720F40196A11DB11D05C002
:1009600026E8230F0296A11DB11D2093420180931A
:10097000430190934401A0934501B09346018091B7
:10098000470190914801A0914901B0914A01019617
:10099000A11DB11D8093470190934801A093490187
:1009A000B0934A01BF91AF919F918F913F912F9149
:1009B0000F900FBE0F901F9018951F920F920FB6B9
:1009C0000F9211242F933F934F935F936F937F93D5
:1009D0008F939F93AF93BF93EF93FF938BE491E03B
:1009E0000E94D202FF91EF91BF91AF919F918F91A1
:1009F0007F916F915F914F913F912F910F900FBE1B
:100A00000F901F9018951F920F920FB60F921124FE
:100A10002F938F939F93EF93FF93E0915B01F0915E
:100A20005C018081E0916101F091620182FD12C060
:100A30009081809164018F5F8F732091650182178F
:100A400051F0E0916401F0E0E55BFE4F958F8093FB
:100A5000640101C08081FF91EF919F918F912F914F
:100A60000F900FBE0F901F90189582E092E00E94A9
:100A7000B8088091130290911402009711F00E941F
:100A8000B8088091110287FD03C060E00C94150145
:100A9000089510924E0110924D0188EE93E0A0E06F
:100AA000B0E080934F0190935001A0935101B09317
:100AB00052018EE091E090934C0180934B0185ECC4
:100AC00090E0909358018093570184EC90E09093CC
:100AD0005A018093590180EC90E090935C018093DF
:100AE0005B0181EC90E090935E0180935D0182EC6C
:100AF00090E09093600180935F0186EC90E090938A
:100B0000620180936101109264011092650110925C
:100B100066011092670110920C021092120210925C
:100B2000190210921A0210921B0210921C021092CB
:100B300018021092150281E08093160292E09093C1
:100B4000170280930B028AE590E090931002809345
:100B50000F020E94230890931402809313020097BF
:100B600061F02AE5FC0111922A95E9F78EE190E007
:100B700090930E0280930D0208C010921002109202
:100B80000F0210920E0210920D0286E08093110265
:100B900080910C02882339F061E086E00E94150103
:100BA00086E00E948800EAEAF0E0E491F0E0EE0FCF
:100BB000FF1FE656FF4F8591949190931E028093FC
:100BC0001D02ECE8F0E0E491E0931F028FE090E07A
:100BD000909303028093020288EC90E090930502C8
:100BE00080930402109206021092070210920802EB
:100BF000109209020E94AA0922E030E040E050E091
:100C00000E94B80921E0672B682B692B09F420E0CA
:100C100020930A021092F20184E690E09093F4018E
:100C20008093F3019093ED018093EC011092EE011B
:100C30001092EF011092F0011092F1011092FB015D
:100C40009093FD018093FC019093F6018093F50150
:100C50001092F7011092F8011092F9011092FA0126
:100C60000E94AA092FE030E0309303022093020291
:100C700028EC30E030930502209304021092060223
:100C800010920702109208021092090222E030E04E
:100C900040E050E00E94B80921E0672B682B692BE7
:100CA00009F420E020930A021092E9011092E80171
:100CB0001092EB011092EA0184E690E09093ED012E
:100CC0008093EC011092EE011092EF011092F0016E
:100CD0001092F1011092F2019093F4018093F301CC
:100CE0009093F6018093F5011092F7011092F801AC
:100CF0001092F9011092FA011092FB019093FD01FC
:100D00008093FC011092FF011092FE018DE190E0B2
:100D100090930102809300028091110287FD07C029
:100D200061E00E941501809111020E94880081E01B
:100D300080930C0240910F025091100260E070E02D
:100D400080911302909114020C945509789484B503
:100D5000826084BD84B5816084BD85B5826085BDB7
:100D600085B5816085BD80916E00816080936E0045
:100D70001092810080918100826080938100809137
:100D800081008160809381008091800081608093E8
:100D900080008091B10084608093B1008091B000A8
:100DA00081608093B00080917A00846080937A00A3
:100DB00080917A00826080937A0080917A008160CD
:100DC00080937A0080917A00806880937A001092F4
:100DD000C10061E08DE00E94150161E086E00E94A3
:100DE0001501E0915B01F0915C0182E08083E0916C
:100DF0005701F09158011082E0915901F0915A0188
:100E00008FEC808310926301E0915F01F0916001AB
:100E100086E08083E0915D01F0915E0180818061D8
:100E20008083E0915D01F0915E0180818860808324
:100E3000E0915D01F0915E01808180688083E091A6
:100E40005D01F0915E0180818F7D8083BB24B3942E
:100E5000CFE0D0E008EC10E082E0C82ED12CE12CED
:100E6000F12C8FB7F894409043015090440160906A
:100E70004501709046018FBF809104029091050258
:100E8000092E000CAA0BBB0B4091060250910702E1
:100E90006091080270910902840F951FA61FB71F69
:100EA000481659066A067B0680F12FB7F8948091A0
:100EB000430190914401A0914501B09146012FBF9B
:100EC0008093060290930702A0930802B093090250
:100ED0008091020290910302AC01415051094C31C2
:100EE000510528F020910A022B2520930A02209117
:100EF0000A02222331F001969093030280930202AA
:100F000004C050930302409302028CEE91E00E94D1
:100F1000660385EF91E00E94660380910202909142
:100F200003022091FE013091FF0182179307E1F542
:100F30008091EA019091EB0101969093EB018093EF
:100F4000EA0182E090E00E948803D0930302C093FC
:100F500002021093050200930402109206021092FE
:100F6000070210920802109209020E94AA09A70122
:100F700096010E94B80921E0672B682B692B09F4C0
:100F800020E020930A020E94DA0368EE73E080E01A
:100F900090E00E9435028DE191E00E94FD03809176
:100FA000EA019091EB0142C02091000230910102D0
:100FB00082179307E9F58091E8019091E901019684
:100FC0009093E9018093E80181E090E00E9488031A
:100FD000D0930302C093020210930502009304020F
:100FE0001092060210920702109208021092090253
:100FF0000E94AA09A70196010E94B80921E0672B67
:10100000682B692B09F420E020930A020E94DA037E
:1010100068EE73E080E090E00E9435028FE291E09C
:101020000E94FD038091E8019091E9010E940F0464
:101030000E94DA030E945C0314CFEE0FFF1F05909D
:10104000F491E02D0994CF93DF938230910510F451
:1010500082E090E0E0912202F091230220E030E073
:10106000C0E0D0E0309711F1408151814817590715
:10107000C0F04817590761F482819381209719F0D5
:101080009B838A832BC0909323028093220226C0E5
:101090002115310519F04217530718F49A01BE01C2
:1010A000DF01EF010280F381E02DDCCF2115310556
:1010B00009F1281B390B2430310590F412968D91DB
:1010C0009C9113976115710521F0FB019383828335
:1010D00004C09093230280932202FD01329644C003
:1010E000FD01E20FF31F81939193225031092D935B
:1010F0003C933AC02091200230912102232B41F4ED
:1011000020910201309103013093210220932002AB
:1011100020910001309101012115310541F42DB7D5
:101120003EB74091040150910501241B350BE0911D
:101130002002F0912102E217F307A0F42E1B3F0BCF
:101140002817390778F0AC014E5F5F4F2417350739
:1011500048F04E0F5F1F509321024093200281936D
:10116000919302C0E0E0F0E0CF01DF91CF910895CC
:101170000F931F93CF93DF93009709F48CC0FC016A
:1011800032971382128200912202109123020115DC
:10119000110581F420813181820F931F209120025B
:1011A000309121022817390779F5F0932102E09355
:1011B000200271C0D80140E050E0AE17BF0750F4E4
:1011C00012962D913C911397AD012115310509F12E
:1011D000D901F3CF9D01DA013383228360817181CC
:1011E000860F971F8217930769F4EC0128813981D4
:1011F000260F371F2E5F3F4F318320838A819B81CB
:1012000093838283452B29F4F0932302E0932202F7
:1012100042C01396FC93EE931297ED0149915991B8
:101220009E01240F351FE217F30771F4808191812D
:10123000840F951F029611969C938E9382819381C1
:1012400013969C938E931297E0E0F0E0D8011296EB
:101250008D919C911397009719F0F8018C01F6CFAE
:101260008D919C9198012E5F3F4F820F931F20918B
:101270002002309121022817390769F4309729F4A8
:10128000109223021092220202C013821282109343
:10129000210200932002DF91CF911F910F910895B9
:1012A00081E090E0F8940C941B0ADC0101C06D937E
:1012B00041505040E0F708958F929F92AF92BF92B5
:1012C000CF92DF92EF92FF92CF93DF93EC01688190
:1012D00079818A819B81611571058105910521F4D0
:1012E00064E279ED8BE597E02DE133EF41E050E0EA
:1012F0000E94B80949015A019B01AC01A7EAB1E477
:101300000E94D7096B017C01ACEEB4EFA5019401FA
:101310000E94E509DC01CB018C0D9D1DAE1DBF1D9A
:10132000B7FF03C00197A109B04888839983AA83B6
:10133000BB83BC01CD019F77DF91CF91FF90EF90F0
:10134000DF90CF90BF90AF909F908F9008950E94B4
:101350005C09089586E091E00E945C09089560931D
:101360000601709307018093080190930901089585
:10137000052E97FB1EF400940E94CF0957FD07D05D
:101380000E94EA0907FC03D04EF40C94CF09509553
:101390004095309521953F4F4F4F5F4F0895909561
:1013A0008095709561957F4F8F4F9F4F08950E9454
:1013B0000C0AA59F900DB49F900DA49F800D911DC8
:1013C00011240895B7FF0C94D7090E94D709821BF6
:1013D000930B0895A1E21A2EAA1BBB1BFD010DC0A1
:1013E000AA1FBB1FEE1FFF1FA217B307E407F507D5
:1013F00020F0A21BB30BE40BF50B661F771F881FB1
:10140000991F1A9469F760957095809590959B0146
:10141000AC01BD01CF010895A29FB001B39FC001EF
:10142000A39F700D811D1124911DB29F700D811D10
:101430001124911D089510E0CDE5D0E004C0FE0117
:101440000E941D082196CE35D107C9F7F894FFCF29
:101450000000240280000100000000000000F302F0
:101460006F02BC029A02AE023A030D0A00706C6170
:1014700079657220322073636F7265733A20007051
:101480006C6179657220312073636F7265733A20E5
:0214900000005A
:00000001FF
