:100000000C945E000C9486000C9486000C94860080
:100010000C9486000C9486000C9486000C94860048
:100020000C9486000C9486000C9486000C94860038
:100030000C9486000C9486000C9486000C94860028
:100040000C947A020C9486000C94EA020C94C4027C
:100050000C9486000C9486000C9486000C94860008
:100060000C9486000C9486000000000024002700F9
:100070002A0000000008000201000003040700003D
:10008000000000000000010204081020408001026E
:1000900004081020010204081020000000002500C0
:1000A00028002B00040404040404040402020202D5
:1000B000020203030303030330031C0311241FBEC6
:1000C000CFEFD8E0DEBFCDBF11E0A0E0B1E0E2EDC0
:1000D000FEE002C005900D92A831B107D9F721E0EA
:1000E000A8E1B1E001C01D92A43EB207E1F710E023
:1000F000CDE5D0E004C02197FE010E941D06CC355D
:10010000D107C9F70E94F8030C945C070C94000017
:1001100090E0FC01EE58FF4F2491FC01EA57FF4F9D
:100120003491FC01EC55FF4FE491EE23B9F1222309
:1001300039F1233091F038F42130A9F0223001F563
:1001400084B58F7D12C0273091F02830A1F0243083
:10015000B9F4809180008F7D03C0809180008F77FB
:10016000809380000DC084B58F7784BD09C08091D5
:10017000B0008F7703C08091B0008F7D8093B00076
:10018000F0E0EE0FFF1FE656FF4FA591B4918FB739
:10019000F894EC9130953E233C938FBF0895CF9314
:1001A000DF9390E0FC01EA57FF4F2491FC01EC55EE
:1001B000FF4F8491882361F190E0880F991FFC0123
:1001C000E859FF4FC591D491FC01E656FF4FA59128
:1001D000B491611109C09FB7F8948881209582235A
:1001E0008883EC912E230BC0623061F49FB7F894A2
:1001F0003881822F809583238883EC912E2B2C933A
:100200009FBF06C08FB7F894E8812E2B28838FBF3D
:10021000DF91CF9108953FB7F89480911D0190919F
:100220001E01A0911F01B091200126B5A89B05C019
:100230002F3F19F00196A11DB11D3FBFBA2FA92F65
:10024000982F8827820F911DA11DB11DBC01CD01E2
:1002500042E0660F771F881F991F4A95D1F70895CE
:10026000CF92DF92EF92FF920F931F93CF93DF9382
:100270006C017A018B01C0E0D0E0CE15DF0589F07A
:10028000D8016D918D01D601ED91FC910190F08125
:10029000E02DC6010995892B11F47E0102C021963B
:1002A000ECCFC701DF91CF911F910F91FF90EF909D
:1002B000DF90CF900895FC01918D828D981761F0A9
:1002C000828DDF01A80FB11D5D968C91928D9F5F8D
:1002D0009F73928F90E008958FEF9FEF0895FC0138
:1002E000918D828D981731F0828DE80FF11D858DEB
:1002F00090E008958FEF9FEF0895FC01918D228D7E
:10030000892F90E0805C9F4F821B91098F73992702
:10031000089581E291E00E947D0121E0892B09F49A
:1003200020E0822F0895FC01848DDF01A80FB11D0C
:10033000A35ABF4F2C91848D90E001968F7399271B
:10034000848FA689B7892C93A089B1898C91806408
:100350008C93938D848D981306C00288F389E02DC9
:1003600080818F7D80830895EF92FF920F931F937A
:10037000CF93DF93EC0181E0888F9B8D8C8D981358
:1003800005C0E889F989808185FD24C0F62E0B8D92
:1003900010E00F5F1F4F0F731127E02E8C8DE812B6
:1003A0000CC00FB607FCFACFE889F989808185FF78
:1003B000F5CFCE010E949301F1CF8B8DFE01E80FA6
:1003C000F11DE35AFF4FF0820B8FEA89FB89808190
:1003D000806207C0EE89FF896083E889F98980819E
:1003E0008064808381E090E0DF91CF911F910F9135
:1003F000FF90EF900895CF93DF93EC01888D8823D1
:10040000C9F0EA89FB89808185FD05C0A889B98981
:100410008C9186FD0FC00FB607FCF5CF808185FF5C
:10042000F2CFA889B9898C9185FFEDCFCE010E94CA
:100430009301E7CFDF91CF91089580E090E0892B81
:1004400029F00E94890181110C94000008958F9277
:100450009F92AF92BF920F931F93CF93DF93CDB72D
:10046000DEB7A1970FB6F894DEBF0FBECDBF19A2BD
:10047000423008F44AE08E010F5D1F4F842E912C0C
:10048000A12CB12CA50194010E94FB05E62FB90116
:10049000CA0101501109EA3014F4E05D01C0E95CC1
:1004A000D801EC93232B242B252B61F70115110583
:1004B00071F0F80101900020E9F73197AF01401B7E
:1004C000510BB80181E291E00E94300102C080E04E
:1004D00090E0A1960FB6F894DEBF0FBECDBFDF91BE
:1004E000CF911F910F91BF90AF909F908F900895E3
:1004F0000E9450071F920F920FB60F9211242F9354
:100500003F938F939F93AF93BF93809119019091E5
:100510001A01A0911B01B0911C013091180123E038
:10052000230F2D3720F40196A11DB11D05C026E82B
:10053000230F0296A11DB11D20931801809319016C
:1005400090931A01A0931B01B0931C0180911D018F
:1005500090911E01A0911F01B09120010196A11D53
:10056000B11D80931D0190931E01A0931F01B093B4
:100570002001BF91AF919F918F913F912F910F904B
:100580000FBE0F901F9018951F920F920FB60F92EB
:1005900011242F933F934F935F936F937F938F9388
:1005A0009F93AF93BF93EF93FF9381E291E00E94FB
:1005B0009301FF91EF91BF91AF919F918F917F91A7
:1005C0006F915F914F913F912F910F900FBE0F90C0
:1005D0001F9018951F920F920FB60F9211242F9310
:1005E0008F939F93EF93FF93E0913101F09132014C
:1005F0008081E0913701F091380182FD12C0908135
:1006000080913A018F5F8F7320913B01821751F0E7
:10061000E0913A01F0E0EF5DFE4F958F80933A0153
:1006200001C08081FF91EF919F918F912F910F9049
:100630000FBE0F901F90189582EC91E00E94B806B3
:100640008091D3019091D401009711F00E94B806D7
:100650008091D10187FD03C060E00C94CF00089524
:10066000109224011092230188EE93E0A0E0B0E004
:100670008093250190932601A0932701B093280130
:100680008AE091E0909322018093210185EC90E033
:1006900090932E0180932D0184EC90E09093300193
:1006A00080932F0180EC90E0909332018093310190
:1006B00081EC90E0909334018093330182EC90E0E0
:1006C000909336018093350186EC90E09093380149
:1006D0008093370110923A0110923B0110923C0135
:1006E00010923D011092CC011092D2011092D901CA
:1006F0001092DA011092DB011092DC0181E080930C
:10070000D8018093D5011092D60192E09093D70141
:100710008093CB018AE590E09093D0018093CF0144
:100720000E9423069093D4018093D301009761F037
:100730002AE5FC0111922A95E9F78EE190E0909369
:10074000CE018093CD0108C01092D0011092CF014C
:100750001092CE011092CD0186E08093D10180915C
:10076000CC01882339F061E086E00E94CF0086E06A
:100770000E948800EAEAF0E0E491F0E0EE0FFF1F4B
:10078000E656FF4F859194919093DE018093DD01B1
:10079000ECE8F0E0E491E093DF011092C3011092E5
:1007A000C20188EC90E09093C5018093C40110923F
:1007B000C6011092C7011092C8011092C90110928F
:1007C000CA011092BF011092BE011092C101109295
:1007D000C0018091D10187FD07C061E00E94CF0078
:1007E0008091D1010E94880081E08093CC0108951E
:1007F000CF93DF93CDB7DEB729970FB6F894DEBF5E
:100800000FBECDBF789484B5826084BD84B581600D
:1008100084BD85B5826085BD85B5816085BD8091CB
:100820006E00816080936E00109281008091810043
:10083000826080938100809181008160809381003B
:10084000809180008160809380008091B1008460FD
:100850008093B1008091B00081608093B00080915E
:100860007A00846080937A0080917A00826080931D
:100870007A0080917A00816080937A0080917A007A
:10088000806880937A001092C10061E08DE00E9440
:10089000CF0061E086E00E94CF00E0913101F0914D
:1008A000320182E08083E0912D01F0912E011082CF
:1008B000E0912F01F09130018FEC8083109239018B
:1008C000E0913501F091360186E08083E0913301BB
:1008D000F0913401808180618083E0913301F09157
:1008E0003401808188608083E0913301F09134018C
:1008F000808180688083E0913301F09134018081B0
:100900008F7D808301E018E08FB7F894C0901901C3
:10091000D0901A01E0901B01F0901C018FBF8091D4
:10092000C4019091C501092E000CAA0BBB0B40918C
:10093000C6015091C7016091C8017091C901840F2F
:10094000951FA61FB71FC816D906EA06FB0608F4AE
:100950005BC02FB7F8948091190190911A01A09172
:100960001B01B0911C012FBF8093C6019093C7015A
:10097000A093C801B093C9018091C2019091C301B5
:10098000AC01415051094C31510528F02091CA0168
:1009900020272093CA012091CA01222331F0019619
:1009A0009093C3018093C20104C05093C30140934C
:1009B000C201C090C201D090C3010D2C000CEE0802
:1009C000FF08F7FE14C0E0912101F091220101908F
:1009D000F081E02D6DE281E291E0099566277727AD
:1009E000CB016C197D098E099F094AE003C04AE0DA
:1009F000C701B6010E94270241E050E066E171E0C4
:100A000081E291E00E9430014091CF015091D001EC
:100A100060E070E08091D3019091D4010E9455076D
:100A20008091C2019091C3012091CD013091CE01FE
:100A300082179307B8F52091D20149E1222321F0D2
:100A4000249F90011124432F5091D8016091D5012A
:100A50002091D3013091D401561308C0BC01660F18
:100A6000771F860F971F820F931F0AC0880F991F49
:100A7000880F991F820F931FFC01E50FF11D108253
:100A80002091D501FC01E20FF11D40832091D60198
:100A9000FC01E20FF11D40832091D701FC01E20F20
:100AA000F11D40838091D3019091D401892B09F4E9
:100AB0009FC00E940B01C090D901D090DA01E09054
:100AC000DB01F090DC01DC01CB018C199D09AE0942
:100AD000BF09C297A105B10560F3F8948091CF01D9
:100AE0009091D0019A838983E091D301F091D40150
:100AF000DF011196808189879091CB01E091DD0122
:100B0000F091DE018091DF01992309F42DC09081DD
:100B1000982B98879081809589238F838F818C83F0
:100B20001B8358856F8149853B812C8189819A81FE
:100B3000508347FD252F3A952083262F39F0441FF7
:100B400000C000006083000000C0F2CF38E04D918B
:100B500060830000019761F7F093DE01E093DD010F
:100B600049873B832C8337C09081982B988790814D
:100B7000809589238F838F818E831D8358856F8114
:100B800049853D812E8189819A81508347FD252F9A
:100B900000C000C0208300C000C000C000C000C072
:100BA00060830000262F3A9541F0441F000000C0EA
:100BB00000C000C000C000C0E8CF38E04D9100C0C8
:100BC000608300C0019709F7F093DE01E093DD0137
:100BD00049873D832E839A83898378940E940B01F1
:100BE0006093D9017093DA018093DB019093DC016B
:100BF0000E941D0289CEA1E21A2EAA1BBB1BFD0179
:100C00000DC0AA1FBB1FEE1FFF1FA217B307E407EB
:100C1000F50720F0A21BB30BE40BF50B661F771F43
:100C2000881F991F1A9469F7609570958095909523
:100C30009B01AC01BD01CF010895EE0FFF1F059090
:100C4000F491E02D0994CF93DF938230910510F455
:100C500082E090E0E091E201F091E30120E030E0F9
:100C6000C0E0D0E0309711F1408151814817590719
:100C7000C0F04817590761F482819381209719F0D9
:100C80009B838A832BC09093E3018093E20126C06B
:100C90002115310519F04217530718F49A01BE01C6
:100CA000DF01EF010280F381E02DDCCF211531055A
:100CB00009F1281B390B2430310590F412968D91DF
:100CC0009C9113976115710521F0FB019383828339
:100CD00004C09093E3018093E201FD01329644C089
:100CE000FD01E20FF31F81939193225031092D935F
:100CF0003C933AC02091E0013091E101232B41F473
:100D000020910201309103013093E1012093E00131
:100D100020910001309101012115310541F42DB7D9
:100D20003EB74091040150910501241B350BE09121
:100D3000E001F091E101E217F307A0F42E1B3F0B55
:100D40002817390778F0AC014E5F5F4F241735073D
:100D500048F04E0F5F1F5093E1014093E0018193F3
:100D6000919302C0E0E0F0E0CF01DF91CF910895D0
:100D70000F931F93CF93DF93009709F48CC0FC016E
:100D80003297138212820091E2011091E301011562
:100D9000110581F420813181820F931F2091E001A0
:100DA0003091E1012817390779F5F093E101E093DB
:100DB000E00171C0D80140E050E0AE17BF0750F429
:100DC00012962D913C911397AD012115310509F132
:100DD000D901F3CF9D01DA013383228360817181D0
:100DE000860F971F8217930769F4EC0128813981D8
:100DF000260F371F2E5F3F4F318320838A819B81CF
:100E000093838283452B29F4F093E301E093E2017D
:100E100042C01396FC93EE931297ED0149915991BC
:100E20009E01240F351FE217F30771F48081918131
:100E3000840F951F029611969C938E9382819381C5
:100E400013969C938E931297E0E0F0E0D8011296EF
:100E50008D919C911397009719F0F8018C01F6CFB2
:100E60008D919C9198012E5F3F4F820F931F20918F
:100E7000E0013091E1012817390769F4309729F42E
:100E80001092E3011092E20102C0138212821093C9
:100E9000E1010093E001DF91CF911F910F9108953F
:100EA00081E090E0F8940C945C07DC0101C06D9344
:100EB00041505040E0F7089510E0CDE5D0E004C087
:100EC000FE010E941D062196CE35D107C9F7F89480
:020ED000FFCF52
:100ED2000000E401800000000000B40130017D0147
:080EE2005B016F01FB01200020
:00000001FF
