:100000000C9463000C948B000C948B000C948B006C
:100010000C948B000C948B000C948B000C948B0034
:100020000C948B000C948B000C948B000C948B0024
:100030000C948B000C948B000C948B000C948B0014
:100040000C94C6050C948B000C9436060C94100688
:100050000C948B000C948B000C948B000C948B00F4
:100060000C948B000C948B000000000024002700EF
:100070002A000000000023002600290000000008DC
:10008000000201000003040700000000000000005F
:10009000010204081020408001020408102001021F
:1000A0000408102000000000250028002B00040494
:1000B0000404040404040202020202020303030310
:1000C00003037C06680611241FBECFEFD8E0DEBF15
:1000D000CDBF22E0AAE7B1E001C01D92A036B20771
:1000E000E1F711E0A0E0B1E0E6E3F6E102C005903F
:1000F0000D92AA37B107D9F710E0C2E6D0E004C0EC
:100100002197FE010E941009C136D107C9F70E944C
:10011000EB070C940E0B0C940000E0914902F09157
:100120004A028E179F07F0F530914E02332361F09B
:10013000639FB0011124672F439FA0011124452F15
:10014000239F90011124232F30915402509151028A
:10015000E0914F02F0915002351308C0DC01AA0F64
:10016000BB1F8A0F9B1F8E0F9F1F0AC0880F991FEE
:10017000880F991F8E0F9F1FFC01E30FF11D108246
:1001800030915102FC01E30FF11D60833091520266
:10019000FC01E30FF11D408330915302FC01E30F9A
:1001A000F11D20830895833081F028F4813099F087
:1001B0008230A1F008958730A9F08830B9F08430FA
:1001C000D1F4809180008F7D03C0809180008F7773
:1001D00080938000089584B58F7702C084B58F7DA9
:1001E00084BD08958091B0008F7703C08091B000E6
:1001F0008F7D8093B0000895CF93DF93282F30E058
:10020000F901E458FF4F8491F901E057FF4FD49171
:10021000F901E255FF4FC491CC2399F081110E945E
:10022000D300EC2FF0E0EE0FFF1FEC55FF4FA59130
:10023000B4918FB7F8949C91ED2FE095E923EC935E
:100240008FBFDF91CF910895CF93DF93282F30E0B8
:10025000F901E458FF4F8491F901E057FF4FD49121
:10026000F901E255FF4FC491CC2391F081110E9416
:10027000D300EC2FF0E0EE0FFF1FEE58FF4FA591DB
:10028000B491EC91ED2381E090E021F480E002C094
:1002900080E090E0DF91CF910895CF93DF9390E0DD
:1002A000FC01E057FF4F2491FC01E255FF4F849180
:1002B000882361F190E0880F991FFC01E859FF4FF6
:1002C000C591D491FC01EC55FF4FA591B4916111FA
:1002D00009C09FB7F8948881209582238883EC9188
:1002E0002E230BC0623061F49FB7F8943881822FBF
:1002F000809583238883EC912E2B2C939FBF06C07F
:100300008FB7F894E8812E2B28838FBFDF91CF9190
:1003100008953FB7F89480917F0190918001A0915A
:100320008101B091820126B5A89B05C02F3F19F02D
:100330000196A11DB11D3FBFBA2FA92F982F882765
:10034000820F911DA11DB11DBC01CD0142E0660FC0
:10035000771F881F991F4A95D1F708950F931F9310
:10036000CF93DF93CDB7DEB729970FB6F894DEBFF2
:100370000FBECDBF80914F0290915002892B09F49E
:10038000A1C00E948901009155021091560220914E
:10039000570230915802DC01CB01801B910BA20B5C
:1003A000B30BC297A105B10560F3F89480914B029D
:1003B00090914C029A838983E0914F02F091500210
:1003C000DF0111968081898790914702E09159025F
:1003D000F0915A0280915B02992309F42EC090811A
:1003E000982B98879081809589238F838F818C8328
:1003F00088E08B8358856F8149853B812C81898179
:100400009A81508347FD252F3A952083262F39F076
:10041000441F00C000006083000000C0F2CF38E03D
:100420004D9160830000019761F7F0935A02E093C9
:10043000590249873B832C8338C09081982B988739
:100440009081809589238F838F818E8388E08D832F
:1004500058856F8149853D812E8189819A8150839C
:1004600047FD252F00C000C0208300C000C000C091
:1004700000C000C060830000262F3A9541F0441F61
:10048000000000C000C000C000C000C0E8CF38E0DD
:100490004D9100C0608300C0019709F7F0935A02A4
:1004A000E093590249873D832E839A838983789408
:1004B0000E948901609355027093560280935702FF
:1004C0009093580229960FB6F894DEBF0FBECDBFA9
:1004D000DF91CF911F910F9108958F929F92AF92CC
:1004E000BF92CF92DF92EF92FF926B017C010E944C
:1004F00089014B015C01C114D104E104F104F1F064
:100500000E948901DC01CB0188199909AA09BB095C
:10051000883E9340A105B10570F321E0C21AD108CD
:10052000E108F10888EE880E83E0981EA11CB11C3A
:10053000C114D104E104F10419F7DDCFFF90EF906D
:10054000DF90CF90BF90AF909F908F9008952FB77E
:10055000F89460917B0170917C0180917D01909174
:100560007E012FBF0895CF92DF92EF92FF920F93FB
:100570001F93CF93DF936C017A018B01C0E0D0E031
:10058000CE15DF0589F0D8016D918D01D601ED9171
:10059000FC910190F081E02DC6010995892B11F4A1
:1005A0007E0102C02196ECCFC701DF91CF911F9150
:1005B0000F91FF90EF90DF90CF900895FC01918D07
:1005C000828D981761F0828DDF01A80FB11D5D96B5
:1005D0008C91928D9F5F9F73928F90E008958FEF23
:1005E0009FEF0895FC01918D828D981731F0828DD7
:1005F000E80FF11D858D90E008958FEF9FEF08952E
:10060000FC01918D228D892F90E0805C9F4F821B91
:1006100091098F739927089583E891E00E94000360
:1006200021E0892B09F420E0822F0895FC01848DBC
:10063000DF01A80FB11DA35ABF4F2C91848D90E00C
:1006400001968F739927848FA689B7892C93A089E7
:10065000B1898C9180648C93938D848D981306C09E
:100660000288F389E02D80818F7D80830895EF9249
:10067000FF920F931F93CF93DF93EC0181E0888F5C
:100680009B8D8C8D981305C0E889F989808185FD43
:1006900024C0F62E0B8D10E00F5F1F4F0F73112734
:1006A000E02E8C8DE8120CC00FB607FCFACFE8895B
:1006B000F989808185FFF5CFCE010E941603F1CF25
:1006C0008B8DFE01E80FF11DE35AFF4FF0820B8F77
:1006D000EA89FB898081806207C0EE89FF89608397
:1006E000E889F98980818064808381E090E0DF91EE
:1006F000CF911F910F91FF90EF900895CF93DF93CB
:10070000EC01888D8823C9F0EA89FB89808185FD09
:1007100005C0A889B9898C9186FD0FC00FB607FC6A
:10072000F5CF808185FFF2CFA889B9898C9185FFAB
:10073000EDCFCE010E941603E7CFDF91CF91089550
:1007400080E090E0892B29F00E940C0381110C9429
:1007500000000895CF92DF92EF92FF920F931F93C4
:10076000CF93DF936C0181E0C816D10429F000E03B
:1007700010E0CDE1D0E004C00DE110E0C0E0D0E039
:100780008FE0E82EF12C20E049E160E0C8010E94F2
:100790008D0020E040E069E1CE010E948D0081E003
:1007A000C816D10421F421960150110903C02197E4
:1007B0000F5F1F4F0E94AE0164E670E080E090E0A2
:1007C0000E946D0281E0E81AF108E9F640914B02BF
:1007D00050914C0260E070E080914F029091500285
:1007E0000E94480ADF91CF911F910F91FF90EF90E7
:1007F000DF90CF900C94AE01E7E4F2E044815581A4
:1008000060E070E0808591850E94480A20E049E11F
:1008100060E080E090E00E948D0020E049E160E02F
:100820008DE190E00E948D0029E149E169E180912C
:100830003E0290913F020E948D000C94AE018FE029
:1008400090E090933F0280933E0284E690E0909384
:100850004102809340021092420210924302109291
:100860004402109245020E949D0A22E030E040E0DE
:1008700050E00E94AB0A21E0672B682B692B09F43A
:1008800020E0209346020E94FC0310922A0210925C
:10089000260210922702109228021092290210922A
:1008A000330210922F0210923002109231021092F5
:1008B000320268EE73E080E090E00C946D020097E5
:1008C00069F0FC0101900020E9F73197AF01481B66
:1008D000590BBC0183E891E00C94B30280E090E0F6
:1008E00008958F929F92AF92BF92CF92DF92EF9234
:1008F000FF920F931F93CF93DF93CDB7DEB7A197EE
:100900000FB6F894DEBF0FBECDBF6C01990FEE0895
:10091000FF08F7FE31C0E0918301F091840101905E
:10092000F081E02D6DE283E891E009958C012227AA
:100930003327A9012C193D094E095F0919A2CE01DF
:1009400081967C019AE0892E912CA12CB12CCA01B0
:10095000B901A50194010E94DD0A605DF70162936F
:100960007F01211531054105510589F7CF010E940D
:100970005F04080F191F1EC0A701960119A28E015E
:100980000F5D1F4F8AE0C82ED12CE12CF12CCA013B
:10099000B901A70196010E94DD0A605DF80162932A
:1009A0008F01211531054105510589F7CF010E94BD
:1009B0005F048C018AE191E00E945F04800F911F27
:1009C000A1960FB6F894DEBF0FBECDBFDF91CF91D9
:1009D0001F910F91FF90EF90DF90CF90BF90AF905D
:1009E0009F908F9008959091460281E0892780938F
:1009F00046028091400290914102853191052CF090
:100A00000A97909341028093400280914002909116
:100A100041020C947104CF92DF92EF92FF920F93F8
:100A20001F930E94A7022091400230914102690168
:100A3000330FEE08FF08009142021091430220910B
:100A40004402309145020C0D1D1D2E1D3F1D6017E7
:100A500071078207930710F10E94A7026093420278
:100A600070934302809344029093450280913E022A
:100A700090913F0201974C9710F00E94F30420914F
:100A8000460280913E0290913F02222311F001968E
:100A900001C0019790933F0280933E021F910F91F6
:100AA000FF90EF90DF90CF900895CF93DF930E9457
:100AB0005F04EC018AE191E00E945F048C0F9D1FAE
:100AC000DF91CF9108950F931F93CF93DF93FC0194
:100AD00026812223D9F0EC010E94A7020A811B8102
:100AE0002C813D81AB01BC01401B510B620B730B90
:100AF0008F819885A0E0B0E084179507A607B70717
:100B000028F48DE191E00E9455051E82DF91CF917E
:100B10001F910F9108958F929F92AF92BF92CF92A3
:100B2000DF92EF92FF920F931F93CF93DF93EC012D
:100B30000E94A70228813981CA80DB80EC80FD8079
:100B400046015701820E931EA11CB11C8616970602
:100B5000A806B90660F488E291E00E94550581E09C
:100B60008E830E94A7026A837B838C839D83DF919F
:100B7000CF911F910F91FF90EF90DF90CF90BF909A
:100B8000AF909F908F9008950E94430A1F920F92FA
:100B90000FB60F9211242F933F938F939F93AF9390
:100BA000BF9380917B0190917C01A0917D01B091D8
:100BB0007E0130917A0123E0230F2D3720F4019636
:100BC000A11DB11D05C026E8230F0296A11DB11D70
:100BD00020937A0180937B0190937C01A0937D0107
:100BE000B0937E0180917F0190918001A09181015D
:100BF000B09182010196A11DB11D80937F01909358
:100C00008001A0938101B0938201BF91AF919F9128
:100C10008F913F912F910F900FBE0F901F901895BD
:100C20001F920F920FB60F9211242F933F934F9361
:100C30005F936F937F938F939F93AF93BF93EF9344
:100C4000FF9383E891E00E941603FF91EF91BF911B
:100C5000AF919F918F917F916F915F914F913F9154
:100C60002F910F900FBE0F901F9018951F920F920B
:100C70000FB60F9211242F938F939F93EF93FF93AF
:100C8000E0919301F09194018081E0919901F091BC
:100C90009A0182FD12C0908180919C018F5F8F73B9
:100CA00020919D01821751F0E0919C01F0E0ED57F9
:100CB000FE4F958F80939C0101C08081FF91EF9141
:100CC0009F918F912F910F900FBE0F901F901895AD
:100CD0008EE392E00E94AB0980914F029091500206
:100CE000009711F00E94AB0980914D0287FD03C06F
:100CF00060E00C944D010895CF93DF93109286012C
:100D00001092850188EE93E0A0E0B0E08093870127
:100D100090938801A0938901B0938A018EE091E0BD
:100D2000909384018093830185EC90E090939001EF
:100D300080938F0184EC90E09093920180939101D5
:100D400080EC90E0909394018093930181EC90E08B
:100D5000909396018093950182EC90E09093980196
:100D60008093970186EC90E090939A01809399018B
:100D700010929C0110929D0110929E0110929F0171
:100D80001092480210924E02109255021092560292
:100D9000109257021092580210925402109251026F
:100DA00081E08093520292E0909353028093470235
:100DB0008AE590E090934C0280934B020E941609C2
:100DC0009093500280934F02009761F02AE5FC0156
:100DD00011922A95E9F78EE190E090934A02809370
:100DE000490208C010924C0210924B0210924A0223
:100DF0001092490286E080934D0280914802882338
:100E000039F061E086E00E944D0186E00E94FC001E
:100E1000E4EBF0E0E491F0E0EE0FFF1FEC55FF4F44
:100E20008591949190935A0280935902E6E9F0E0FB
:100E3000E491E0935B028FE090E090933F02809317
:100E40003E0284E690E0909341028093400210922B
:100E500042021092430210924402109245020E94F4
:100E60009D0A22E030E040E050E00E94AB0A21E021
:100E7000672B682B692B09F420E02093460210921F
:100E80002A0288EC90E090932C0280932B02C4E617
:100E9000D0E0D0932502C093240210922602109233
:100EA0002702109228021092290210923302909386
:100EB000350280933402D0932E02C0932D021092FB
:100EC0002F021092300210923102109232020E94D0
:100ED0009D0A2FE030E030933F0220933E02D093F2
:100EE0004102C093400210924202109243021092BB
:100EF00044021092450222E030E040E050E00E94BF
:100F0000AB0A21E0672B682B692B09F420E02093C2
:100F10004602109221021092200210922302109297
:100F2000220224E630E0309325022093240210921E
:100F30002602109227021092280210922902109283
:100F40002A0288EC90E090932C0280932B0230933D
:100F50002E0220932D0210922F0210923002109236
:100F60003102109232021092330290933502809334
:100F7000340210923702109236028DE190E0909385
:100F800039028093380281E090E090933B02809395
:100F90003A028CE190E090933D0280933C02809174
:100FA0004D0287FD07C061E00E944D0180914D0216
:100FB0000E94FC0081E08093480240914B025091D6
:100FC0004C0260E070E080914F0290915002DF91FE
:100FD000CF910C94480A789484B5826084BD84B51E
:100FE000816084BD85B5826085BD85B5816085BD24
:100FF00080916E00816080936E00109281008091DC
:101000008100826080938100809181008160809363
:101010008100809180008160809380008091B10088
:1010200084608093B1008091B00081608093B000B3
:1010300080917A00846080937A0080917A00826047
:1010400080937A0080917A00816080937A00809109
:101050007A00806880937A001092C10061E08DE090
:101060000E944D0161E086E00E944D0160E087E052
:101070000E944D0160E088E00E944D01E0919301E3
:10108000F091940182E08083E0918F01F0919001D2
:101090001082E0919101F09192018FEC8083109287
:1010A0009B01E0919701F091980186E08083E091A7
:1010B0009501F0919601808180618083E091950196
:1010C000F0919601808188608083E0919501F09194
:1010D0009601808180688083E0919501F09196016E
:1010E00080818F7D808388E00E9424010E947104AA
:1010F00087E00E9424010E94710487E00E9424017D
:10110000019741F481E391E00E94550584E292E069
:101110000E948B0588E00E942401019741F481E43C
:1011200091E00E9455058DE292E00E948B0580912E
:101130003E0290913F0220913A0230913B02821789
:10114000930721F420912A0221115DC020913C02D5
:1011500030913D028217930721F48091330281116F
:1011600052C084E292E00E9463058DE292E00E9408
:1011700063050E940B0580913E0290913F022091F1
:1011800036023091370282179307C1F48091220210
:10119000909123020196909323028093220282E091
:1011A00090E00E94AA030E941F0481E591E00E9442
:1011B0005F0480912202909123021EC02091380288
:1011C0003091390282179307C9F4809120029091DF
:1011D00021020196909321028093200281E090E009
:1011E0000E94AA030E941F0483E691E00E945F040C
:1011F00080912002909121020E9471040E94FC03C0
:101200000E94A0037ACF85E791E00E9455050E94D5
:10121000F3040E940B0510922A0210923302A1CF10
:10122000EE0FFF1F0590F491E02D0994CF93DF930B
:101230008230910510F482E090E0E0915E02F0913E
:101240005F0220E030E0C0E0D0E0309711F1408153
:10125000518148175907C0F04817590761F4828136
:101260009381209719F09B838A832BC090935F0210
:1012700080935E0226C02115310519F042175307ED
:1012800018F49A01BE01DF01EF010280F381E02D25
:10129000DCCF2115310509F1281B390B243031052C
:1012A00090F412968D919C9113976115710521F020
:1012B000FB019383828304C090935F0280935E025C
:1012C000FD01329644C0FD01E20FF31F819391931B
:1012D000225031092D933C933AC020915C02309109
:1012E0005D02232B41F420910201309103013093E0
:1012F0005D0220935C0220910001309101012115D3
:10130000310541F42DB73EB74091040150910501DC
:10131000241B350BE0915C02F0915D02E217F307AC
:10132000A0F42E1B3F0B2817390778F0AC014E5F55
:101330005F4F2417350748F04E0F5F1F50935D0233
:1013400040935C028193919302C0E0E0F0E0CF0112
:10135000DF91CF9108950F931F93CF93DF93009761
:1013600009F48CC0FC0132971382128200915E0254
:1013700010915F020115110581F420813181820FE6
:10138000931F20915C0230915D022817390779F58F
:10139000F0935D02E0935C0271C0D80140E050E040
:1013A000AE17BF0750F412962D913C911397AD01E3
:1013B0002115310509F1D901F3CF9D01DA013383FC
:1013C000228360817181860F971F8217930769F4CA
:1013D000EC0128813981260F371F2E5F3F4F318363
:1013E00020838A819B8193838283452B29F4F09308
:1013F0005F02E0935E0242C01396FC93EE93129755
:10140000ED01499159919E01240F351FE217F30711
:1014100071F480819181840F951F029611969C939F
:101420008E938281938113969C938E931297E0E022
:10143000F0E0D80112968D919C911397009719F0C6
:10144000F8018C01F6CF8D919C9198012E5F3F4F52
:10145000820F931F20915C0230915D02281739079B
:1014600069F4309729F410925F0210925E0202C074
:101470001382128210935D0200935C02DF91CF9180
:101480001F910F91089581E090E0F8940C940E0B59
:10149000DC0101C06D9341505040E0F708958F92F8
:1014A0009F92AF92BF92CF92DF92EF92FF92CF9333
:1014B000DF93EC01688179818A819B8161157105D7
:1014C0008105910521F464E279ED8BE597E02DE14A
:1014D00033EF41E050E00E94AB0A49015A019B0101
:1014E000AC01A7EAB1E40E94CA0A6B017C01ACEE30
:1014F000B4EFA50194010E94D80ADC01CB018C0D48
:101500009D1DAE1DBF1DB7FF03C00197A109B048C7
:1015100088839983AA83BB83BC01CD019F77DF9128
:10152000CF91FF90EF90DF90CF90BF90AF909F90C2
:101530008F9008950E944F0A089586E091E00E94DE
:101540004F0A089560930601709307018093080184
:10155000909309010895052E97FB1EF400940E94B4
:10156000C20A57FD07D00E94DD0A07FC03D04EF4E3
:101570000C94C20A50954095309521953F4F4F4F9E
:101580005F4F089590958095709561957F4F8F4F2F
:101590009F4F08950E94FF0AA59F900DB49F900D44
:1015A000A49F800D911D11240895B7FF0C94CA0AC1
:1015B0000E94CA0A821B930B0895A1E21A2EAA1B4D
:1015C000BB1BFD010DC0AA1FBB1FEE1FFF1FA217F3
:1015D000B307E407F50720F0A21BB30BE40BF50BF0
:1015E000661F771F881F991F1A9469F76095709579
:1015F000809590959B01AC01BD01CF010895A29FFC
:10160000B001B39FC001A39F700D811D1124911DD6
:10161000B29F700D811D1124911D089510E0C2E646
:10162000D0E004C0FE010E9410092196C336D10704
:06163000C9F7F894FFCF9A
:101636000000600280000100000000000000370387
:10164600B3020003DE02F2027E030D0A0044456186
:101656006374697661746500416374697661746563
:1016660000506C61796572203120627574746F6EFA
:1016760000506C61796572203220627574746F6EE9
:1016860000706C6179657220322073636F726573C6
:101696003A2000706C6179657220312073636F7235
:0A16A60065733A200050696E67007A
:00000001FF
